:1000000012C0C2C22AC029C028C05EC126C025C0F5
:1000100024C023C022C021C0040201FD60DBF366BE
:10002000B7BFE1FFE79F11241FBECFEDCDBF10E0AA
:10003000A4E6B0E001C01D92AB3AB107E1F710E0D1
:10004000A0E6B0E0ECEFF7E003C0C89531960D9262
:10005000A436B107D1F7ADD0CFC3D2CF67FD03C06F
:10006000603221F402C06FE101C060E047FD03C0CF
:10007000483019F003C047E001C040E021E030E023
:1000800002C0220F331F4A95E2F7E62FFF27E7FD54
:10009000F095E80FF91F808182230895C398089591
:1000A000C39A089509C0C498962F982311F0C59A51
:1000B00001C0C598C49A66956623A9F708951F9351
:1000C000182FECDF84E064E0EDDF812F60E8EADFE9
:1000D00080E061E0E7DFE4DF1F9108958A3038F4C3
:1000E000E82FFF27E7FDF095E55EFF4F02C0E5E250
:1000F000F0E0C895E02DE69547E0F0E081E090E083
:1001000041502E2F3F2F042E02C0359527950A947B
:10011000E2F720FF0CC05BB3282F392F042E02C05A
:10012000220F331F0A94E2F7522B5BBB0CC05BB368
:10013000282F392F042E02C0220F331F0A94E2F712
:10014000209525232BBB4423D9F680E090E0E62FB1
:10015000F0E0E85EFF4FC895202D681721F438B312
:10016000322B38BB0AC038B3E82FF92FE85EFF4FB7
:10017000C895E02DE095E323E8BB01968330910517
:1001800061F78FEC97E00197F1F700C00000089548
:10019000CF93DF93CBE6D0E08CD2899380E0CB384D
:1001A000D807D1F71092690010926800DF91CF91C3
:1001B0000895CF92DF92EF92FF920F931F93DF93F8
:1001C000CF9300D0CDB7DEB788B3886388BB87B341
:1001D000886387BB63DF64DF80E071DF81E06FDF0E
:1001E00084E16DDF88E16BDF80E269DF87EA67DF4A
:1001F00000E010E053DF85E064E054DF802F60E42E
:1002000051DF802F68E04EDF4BDF0F5F1F4F003460
:10021000110581F783E053DFD798DF98329A379A38
:1002200087B1896087B9369A3699FECF84B190E05C
:1002300043D2BE98C69A85B7826085BF8BB780646B
:100240008BBF8FB58F608FBD89B7846089BF87B33F
:10025000876087BB8AB38F678ABB9ADF7894CC2488
:10026000DD24FF24F3940AE010E0809164008823E9
:1002700031F0C0906800D09069001092640028EEC0
:10028000C21623E0D206A8F42C2D3D2D8C2D932FE1
:1002900020E0602F712F9BD1E62E622F29837A8375
:1002A0001DDF8E2D7A81972F29812F5F233089F7CB
:1002B00005C08AE060E012DFF0926A0080916A0077
:1002C000882399F265DFD1CF1F920F920FB60F925C
:1002D00011247F928F929F92AF92BF92CF92DF9222
:1002E000EF92FF920F931F932F933F934F935F9340
:1002F0006F937F938F939F93AF93BF93CF93DF932E
:10030000EF93FF938091680090916900019690931C
:1003100069008093680010E21150E12FF0E0E55988
:10032000FF4F0081BBDE85E064E0BCDE812F880FDB
:1003300060E4B8DE802F60E8B5DEB2DE112361F73D
:100340000AEA10E040E2C42E31E0E32EF12C6DC049
:10035000C7E0D0E0AC2CAA94BC2CB3947C2E8BE6E6
:1003600090E06A2D4C2F7ADEDD24D394882309F4A3
:10037000DD249C2E8C2E83948BE690E06A2D482DF4
:100380006DDE8111D3949A948BE690E06A2D492D0D
:1003900065DE8111D3948BE690E06C2D492D5EDEF5
:1003A0008111D3948BE690E06C2D482D57DE81119E
:1003B000D3948BE690E06B2D472D50DE8111D394C2
:1003C0008BE690E06B2D482D49DE8111D3948BE6AE
:1003D00090E06B2D492D42DE8111D3949D2D9230FA
:1003E00070F0943060F48BE690E06C2D472D36DE93
:1003F000882309F0BBC0ED2DE33009F4B7C08E2D82
:100400009F2D0C2E02C0880F991F0A94E2F7809549
:10041000E02FF12F9081982390832197FFEFCF3F1A
:10042000DF0709F09BCF01501040CA942C2D2F3FBD
:1004300009F08ECF00E0EE241FC08BE890E0602F23
:10044000412F0CDE813041F48BE690E0602F412F8C
:1004500005DE882351F00AC0882341F48BE690E042
:10046000602F412FFBDD813009F4E3941F5F1830CA
:1004700021F70F5F003211F010E0DFCF3E2D353055
:1004800030F4809165008F5F809365001BC08E2DD6
:10049000893030F4809166009091670001960EC01B
:1004A00080916500882319F08150809365008091C8
:1004B000660090916700009729F00197909367007C
:1004C00080936600809165008B3218F01092650071
:1004D0000BC08091660090916700853C910530F0DB
:1004E000109267001092660053DE0AC0EBE8F0E05D
:1004F000ABE6B0E081918D9390E0EB3AF907D1F74C
:1005000081E08093640017B187B1807E87B987B19D
:10051000866087B9369A3699FECF84B195B126E0C8
:10052000969587952A95E1F78F70806AC8DD17B98F
:10053000FF91EF91DF91CF91BF91AF919F918F91FB
:100540007F916F915F914F913F912F911F910F91EB
:10055000FF90EF90DF90CF90BF90AF909F908F90E3
:100560007F900F900FBE0F901F9018958E2D9F2D8E
:100570000C2E02C0880F991F0A94E2F7E02FF12F8A
:100580002081282B208349CF1F920F920FB60F9204
:1005900011242F933F934F935F936F937F938F9388
:1005A0009F93AF93BF93EF93FF93F2DDFF91EF9192
:1005B000BF91AF919F918F917F916F915F914F917B
:1005C0003F912F910F900FBE0F901F90189597FBA2
:1005D000092E07260AD077FD04D00CD006D00020C3
:1005E0001AF4709561957F4F0895F6F7909581956F
:1005F0009F4F0895AA1BBB1B51E107C0AA1FBB1F39
:10060000A617B70710F0A61BB70B881F991F5A959E
:10061000A9F780959095682F792F8A2F9B2F0895A1
:10062000A0E0B0E0E5E1F3E090C0C82FD92F6881E9
:1006300079818A819B81611571058105910521F47C
:1006400064E279ED8BE597E02DE133EF41E050E096
:1006500059D0E22EF32E042F152F27EA31E440E083
:1006600050E035D0A62EB72EC82ED92E912F802F30
:100670007F2D6E2D2CEE34EF4FEF5FEF28D0262F1D
:10068000372F482F592F2A0D3B1D4C1D5D1D57FF3D
:1006900004C02150304040405048288339834A8369
:1006A0005B833F77822F932FCDB7DEB7EAE069C037
:1006B000B7CF80E690E0B4CFA0E0B0E080936000D8
:1006C00090936100A0936200B09363000895FF27A8
:1006D000EE27BB27AA2760FF04C0A20FB31FE41FA9
:1006E000F51F220F331F441F551F96958795779549
:1006F000679589F70097760771F79F2F8E2F7B2FCD
:100700006A2F089597FB092E05260ED057FD04D0B9
:100710004CD00AD0001C38F4509540953095219566
:100720003F4F4F4F5F4F0895F6F790958095709526
:1007300061957F4F8F4F9F4F08952F923F924F9219
:100740005F926F927F928F929F92AF92BF92CF9261
:10075000DF92EF92FF920F931F93CF93DF93CDB76A
:10076000DEB7CA1BDB0B0FB6F894DEBF0FBECDBFE2
:1007700009942A88398848885F846E847D848C84B3
:100780009B84AA84B984C884DF80EE80FD800C81BC
:100790001B81AA81B981CE0FD11D0FB6F894DEBF9F
:1007A0000FBECDBFCA2FDB2F0895A1E21A2EAA1BC0
:1007B000BB1BEA2FFB2F0DC0AA1FBB1FEE1FFF1F85
:1007C000A217B307E407F50720F0A21BB30BE40B55
:1007D000F50B661F771F881F991F1A9469F760959C
:1007E000709580959095262F372F482F592F6A2F77
:0C07F0007B2F8E2F9F2F0895F894FFCFD1
:0407FC0001000000F8
:00000001FF
