:1000000012C02BC02AC029C028C030C126C025C0BC
:1000100024C023C022C021C0010204FD60DBF366BE
:10002000B7BFE1FFE79F11241FBECFEDCDBF10E0AA
:10003000A4E6B0E001C01D92AA3AB107E1F710E0D2
:10004000A0E6B0E0EEE3F7E003C0C89531960D926C
:10005000A436B107D1F78BD070C3D2CF67FD03C0F0
:10006000603221F402C06FE101C060E047FD03C0CF
:10007000483019F003C047E001C040E021E030E023
:1000800002C0220F331F4A95E2F7E62FFF27E7FD54
:10009000F095E80FF91F808182230895C398089591
:1000A000C39A089509C0C498962F982311F0C59A51
:1000B00001C0C598C49A66956623A9F708951F9351
:1000C000182FECDF84E064E0EDDF812F60E8EADFE9
:1000D00080E061E0E7DFE4DF1F9108958A3038F4C3
:1000E000E82FFF27E7FDF095E55EFF4F02C0E5E250
:1000F000F0E0C895E02DE695EBBB80E090E0E62FC0
:10010000F0E0E85EFF4FC895202D681721F438B362
:10011000322B38BB0AC038B3E82FF92FE85EFF4F07
:10012000C895E02DE095E323E8BB01968330910567
:1001300061F78FEC97E00197F1F700C00000089598
:10014000CF93DF93369A3699FECF85B190E055D2A2
:10015000CAE6D0E04FD2899380E0CA38D807D1F7F9
:100160001092690010926800DF91CF910895EF928C
:10017000FF920F931F93DF93CF930F92CDB7DEB70C
:1001800088B3886388BB87B3886387BB87DF88DFD2
:1001900080E095DF81E093DF84E191DF88E18FDF0C
:1001A00080E28DDF87EA8BDF00E010E077DF85E01B
:1001B00064E078DF802F60E475DF802F68E072DF15
:1001C0006FDF0F5F1F4F0034110581F783E077DF8A
:1001D0008FB58F608FBD89B7846089BF87B3876013
:1001E00087BB8AB38F678ABB87B1896087B9329A28
:1001F000379AA6DF78944AE0E42EF12C80916400CF
:10020000882331F080916800909169001092640019
:10021000369A3699FECF84B195B136E0969587959A
:100220003A95E1F723E0883E920790F4282F392F82
:10023000932F10E06E2D7F2D6BD1062F612F7983C8
:100240004DDF802F7981972F1F5F133099F703C0FF
:100250008AE060E043DF84B195B126E0969587950A
:100260002A95E1F78F70806A2ADFC8CF1F920F921C
:100270000FB60F9211245F926F927F928F929F928E
:10028000AF92BF92CF92DF92EF92FF920F931F93A4
:100290002F933F934F935F936F937F938F939F938E
:1002A000AF93BF93CF93DF93EF93FF938091680059
:1002B0009091690001969093690080936800FAE636
:1002C000CF2EF0E0DF2ECC2DDD2D10E00991E6DE03
:1002D00085E064E0E7DE812F60E4E4DE802F60E803
:1002E000E1DEDEDE1E5F103489F709EA10E0E1E2AC
:1002F000AE2E71E0E72EF12C6CC0C7E0D0E06EEFBF
:10030000762E7A0C5C2E8AE690E0672D4C2FA6DEC6
:10031000BB24B394882309F4BB249C2E8C2E839495
:100320008AE690E0672D482D99DE8111B3949A9466
:100330008AE690E0672D492D91DE8111B3948AE61B
:1003400090E0662D492D8ADE8111B3948AE690E013
:10035000662D482D83DE8111B3948AE690E06A2DE4
:10036000452D7CDE8111B3948AE690E06A2D482DFC
:1003700075DE8111B3948AE690E06A2D492D6EDE18
:100380008111B3949B2D923070F0943060F48AE622
:1003900090E0662D452D62DE882309F0ABC0AB2DC1
:1003A000A33009F4A7C08E2D9F2D0C2E02C0880FFC
:1003B000991F0A94E2F78095A02FB12F9C91982362
:1003C0009C932197BFEFCF3FDB0709F09BCF0150F4
:1003D00010405EEF652E6A0CAA9409F08ECF00E003
:1003E000EE241FC08AE890E0602F412F37DE813075
:1003F00041F48AE690E0602F412F30DE882351F0EF
:100400000AC0882341F48AE690E0602F412F26DE5F
:10041000813009F4E3941F5F183021F70F5F003239
:1004200011F010E0DFCFEE2DE53030F48091650063
:100430008F5F809365001BC0FE2DF93030F48091F2
:1004400066009091670001960EC080916500882338
:1004500019F081508093650080916600909167004B
:10046000009729F001979093670080936600809130
:1004700065008B3218F0109265000BC08091660009
:1004800090916700853C910530F0109267001092C2
:10049000660056DE0CC0EAE8F0E08191AC2DBD2D7F
:1004A0008D93CA2EDB2EB0E0EA3AFB07B1F781E06C
:1004B00080936400FF91EF91DF91CF91BF91AF9155
:1004C0009F918F917F916F915F914F913F912F916C
:1004D0001F910F91FF90EF90DF90CF90BF90AF9062
:1004E0009F908F907F906F905F900F900FBE0F90B6
:1004F0001F9018958E2D9F2D0C2E02C0880F991FCE
:100500000A94E2F7A02FB12F2C91282B2C9359CFCE
:1005100097FB092E07260AD077FD04D00CD006D011
:1005200000201AF4709561957F4F0895F6F7909525
:1005300081959F4F0895AA1BBB1B51E107C0AA1FBD
:10054000BB1FA617B70710F0A61BB70B881F991F74
:100550005A95A9F780959095682F792F8A2F9B2F10
:100560000895A0E0B0E0E6EBF2E090C0C82FD92FEC
:10057000688179818A819B81611571058105910569
:1005800021F464E279ED8BE597E02DE133EF41E072
:1005900050E059D0E22EF32E042F152F27EA31E434
:1005A00040E050E035D0A62EB72EC82ED92E912F80
:1005B000802F7F2D6E2D2CEE34EF4FEF5FEF28D084
:1005C000262F372F482F592F2A0D3B1D4C1D5D1DFF
:1005D00057FF04C0215030404040504828833983A1
:1005E0004A835B833F77822F932FCDB7DEB7EAE054
:1005F00069C0B7CF80E690E0B4CFA0E0B0E08093D0
:10060000600090936100A0936200B093630008952E
:10061000FF27EE27BB27AA2760FF04C0A20FB31F46
:10062000E41FF51F220F331F441F551F9695879512
:100630007795679589F70097760771F79F2F8E2F2B
:100640007B2F6A2F089597FB092E05260ED057FDA4
:1006500004D04CD00AD0001C38F450954095309509
:1006600021953F4F4F4F5F4F0895F6F79095809536
:10067000709561957F4F8F4F9F4F08952F923F92B6
:100680004F925F926F927F928F929F92AF92BF92A2
:10069000CF92DF92EF92FF920F931F93CF93DF934E
:1006A000CDB7DEB7CA1BDB0B0FB6F894DEBF0FBEAB
:1006B000CDBF09942A88398848885F846E847D84F8
:1006C0008C849B84AA84B984C884DF80EE80FD80FA
:1006D0000C811B81AA81B981CE0FD11D0FB6F89470
:1006E000DEBF0FBECDBFCA2FDB2F0895A1E21A2EA9
:1006F000AA1BBB1BEA2FFB2F0DC0AA1FBB1FEE1F9F
:10070000FF1FA217B307E407F50720F0A21BB30BE6
:10071000E40BF50B661F771F881F991F1A9469F762
:100720006095709580959095262F372F482F592FDB
:0E0730006A2F7B2F8E2F9F2F0895F894FFCFF6
:04073E0001000000B6
:00000001FF
